{
  "contracts/Verifier.sol": {
    "Verifier": {
      "abi": [
        {
          "inputs": [],
          "stateMutability": "payable",
          "type": "constructor"
        },
        {
          "inputs": [],
          "name": "EVAL_FAILED_1",
          "type": "error"
        },
        {
          "inputs": [],
          "name": "EVAL_FAILED_2",
          "type": "error"
        },
        {
          "inputs": [],
          "name": "POINT_X_TOO_LARGE",
          "type": "error"
        },
        {
          "inputs": [],
          "name": "POINT_Y_TOO_LARGE",
          "type": "error"
        },
        {
          "inputs": [],
          "name": "BLS_MODULUS",
          "outputs": [
            {
              "internalType": "uint256",
              "name": "",
              "type": "uint256"
            }
          ],
          "stateMutability": "view",
          "type": "function"
        },
        {
          "inputs": [],
          "name": "FIELD_ELEMENTS_PER_BLOB",
          "outputs": [
            {
              "internalType": "uint32",
              "name": "",
              "type": "uint32"
            }
          ],
          "stateMutability": "view",
          "type": "function"
        },
        {
          "inputs": [],
          "name": "POINT_EVALUATION_PRECOMPILE_ADDRESS",
          "outputs": [
            {
              "internalType": "address",
              "name": "",
              "type": "address"
            }
          ],
          "stateMutability": "view",
          "type": "function"
        },
        {
          "inputs": [
            {
              "internalType": "bytes32",
              "name": "_blobHash",
              "type": "bytes32"
            },
            {
              "internalType": "uint256",
              "name": "_x",
              "type": "uint256"
            },
            {
              "internalType": "uint256",
              "name": "_y",
              "type": "uint256"
            },
            {
              "internalType": "bytes",
              "name": "_commitment",
              "type": "bytes"
            },
            {
              "internalType": "bytes",
              "name": "_pointProof",
              "type": "bytes"
            }
          ],
          "name": "evaluatePoint",
          "outputs": [],
          "stateMutability": "view",
          "type": "function"
        },
        {
          "inputs": [
            {
              "internalType": "bytes32",
              "name": "",
              "type": "bytes32"
            }
          ],
          "name": "getBlobHash",
          "outputs": [
            {
              "internalType": "bytes32",
              "name": "",
              "type": "bytes32"
            }
          ],
          "stateMutability": "view",
          "type": "function"
        },
        {
          "inputs": [],
          "name": "getDummyValue",
          "outputs": [
            {
              "internalType": "uint256",
              "name": "",
              "type": "uint256"
            }
          ],
          "stateMutability": "pure",
          "type": "function"
        }
      ],
      "evm": {
        "bytecode": {
          "linkReferences": {},
          "object": "60806040526105a8806100115f395ff3fe608060405234801561000f575f5ffd5b506004361061006f575f3560e01c80633e41062e1161004d5780633e41062e146100b25780635843cc51146100df578063608fb6d114610106575f5ffd5b80630a0e465d146100735780630fe58c84146100895780632e9c5ec71461009e575b5f5ffd5b60295b6040519081526020015b60405180910390f35b61009c610097366004610481565b610124565b005b6100766100ac366004610501565b505f4990565b6100ba600a81565b60405173ffffffffffffffffffffffffffffffffffffffff9091168152602001610080565b6100767f73eda753299d7d483339d80809a1d80553bda402fffe5bfeffffffff0000000181565b61010f61100081565b60405163ffffffff9091168152602001610080565b815160301461017a5760405162461bcd60e51b815260206004820152601960248201527f496e76616c696420636f6d6d69746d656e74206c656e6774680000000000000060448201526064015b60405180910390fd5b80516030146101cb5760405162461bcd60e51b815260206004820152601a60248201527f496e76616c696420706f696e742070726f6f66206c656e6774680000000000006044820152606401610171565b7f73eda753299d7d483339d80809a1d80553bda402fffe5bfeffffffff000000018410610224576040517f0e8664f900000000000000000000000000000000000000000000000000000000815260040160405180910390fd5b7f73eda753299d7d483339d80809a1d80553bda402fffe5bfeffffffff00000001831061027d576040517ffa85a7e400000000000000000000000000000000000000000000000000000000815260040160405180910390fd5b5f5f600a73ffffffffffffffffffffffffffffffffffffffff1687878787876040516020016102b095949392919061052f565b60408051601f19818403018152908290526102ca91610560565b5f60405180830381855afa9150503d805f8114610302576040519150601f19603f3d011682016040523d82523d5f602084013e610307565b606091505b509150915081610343576040517fd4717af400000000000000000000000000000000000000000000000000000000815260040160405180910390fd5b8051604014610365576040516366b5f06360e01b815260040160405180910390fd5b60208101516040820151611000821415806103a057507f73eda753299d7d483339d80809a1d80553bda402fffe5bfeffffffff000000018114155b156103be576040516366b5f06360e01b815260040160405180910390fd5b505050505050505050565b7f4e487b71000000000000000000000000000000000000000000000000000000005f52604160045260245ffd5b5f82601f830112610405575f5ffd5b813567ffffffffffffffff81111561041f5761041f6103c9565b604051601f8201601f19908116603f0116810167ffffffffffffffff8111828210171561044e5761044e6103c9565b604052818152838201602001851015610465575f5ffd5b816020850160208301375f918101602001919091529392505050565b5f5f5f5f5f60a08688031215610495575f5ffd5b853594506020860135935060408601359250606086013567ffffffffffffffff8111156104c0575f5ffd5b6104cc888289016103f6565b925050608086013567ffffffffffffffff8111156104e8575f5ffd5b6104f4888289016103f6565b9150509295509295909350565b5f60208284031215610511575f5ffd5b5035919050565b5f81518060208401855e5f93019283525090919050565b8581528460208201528360408201525f61055561054f6060840186610518565b84610518565b979650505050505050565b5f61056b8284610518565b939250505056fea2646970667358221220705ac54d7b5c2e49649fd191178cc830a8b89618b38cfb019f443c19b85ab58f64736f6c634300081c0033",
          "opcodes": "PUSH1 0x80 PUSH1 0x40 MSTORE PUSH2 0x5A8 DUP1 PUSH2 0x11 PUSH0 CODECOPY PUSH0 RETURN INVALID PUSH1 0x80 PUSH1 0x40 MSTORE CALLVALUE DUP1 ISZERO PUSH2 0xF JUMPI PUSH0 PUSH0 REVERT JUMPDEST POP PUSH1 0x4 CALLDATASIZE LT PUSH2 0x6F JUMPI PUSH0 CALLDATALOAD PUSH1 0xE0 SHR DUP1 PUSH4 0x3E41062E GT PUSH2 0x4D JUMPI DUP1 PUSH4 0x3E41062E EQ PUSH2 0xB2 JUMPI DUP1 PUSH4 0x5843CC51 EQ PUSH2 0xDF JUMPI DUP1 PUSH4 0x608FB6D1 EQ PUSH2 0x106 JUMPI PUSH0 PUSH0 REVERT JUMPDEST DUP1 PUSH4 0xA0E465D EQ PUSH2 0x73 JUMPI DUP1 PUSH4 0xFE58C84 EQ PUSH2 0x89 JUMPI DUP1 PUSH4 0x2E9C5EC7 EQ PUSH2 0x9E JUMPI JUMPDEST PUSH0 PUSH0 REVERT JUMPDEST PUSH1 0x29 JUMPDEST PUSH1 0x40 MLOAD SWAP1 DUP2 MSTORE PUSH1 0x20 ADD JUMPDEST PUSH1 0x40 MLOAD DUP1 SWAP2 SUB SWAP1 RETURN JUMPDEST PUSH2 0x9C PUSH2 0x97 CALLDATASIZE PUSH1 0x4 PUSH2 0x481 JUMP JUMPDEST PUSH2 0x124 JUMP JUMPDEST STOP JUMPDEST PUSH2 0x76 PUSH2 0xAC CALLDATASIZE PUSH1 0x4 PUSH2 0x501 JUMP JUMPDEST POP PUSH0 BLOBHASH SWAP1 JUMP JUMPDEST PUSH2 0xBA PUSH1 0xA DUP2 JUMP JUMPDEST PUSH1 0x40 MLOAD PUSH20 0xFFFFFFFFFFFFFFFFFFFFFFFFFFFFFFFFFFFFFFFF SWAP1 SWAP2 AND DUP2 MSTORE PUSH1 0x20 ADD PUSH2 0x80 JUMP JUMPDEST PUSH2 0x76 PUSH32 0x73EDA753299D7D483339D80809A1D80553BDA402FFFE5BFEFFFFFFFF00000001 DUP2 JUMP JUMPDEST PUSH2 0x10F PUSH2 0x1000 DUP2 JUMP JUMPDEST PUSH1 0x40 MLOAD PUSH4 0xFFFFFFFF SWAP1 SWAP2 AND DUP2 MSTORE PUSH1 0x20 ADD PUSH2 0x80 JUMP JUMPDEST DUP2 MLOAD PUSH1 0x30 EQ PUSH2 0x17A JUMPI PUSH1 0x40 MLOAD PUSH3 0x461BCD PUSH1 0xE5 SHL DUP2 MSTORE PUSH1 0x20 PUSH1 0x4 DUP3 ADD MSTORE PUSH1 0x19 PUSH1 0x24 DUP3 ADD MSTORE PUSH32 0x496E76616C696420636F6D6D69746D656E74206C656E67746800000000000000 PUSH1 0x44 DUP3 ADD MSTORE PUSH1 0x64 ADD JUMPDEST PUSH1 0x40 MLOAD DUP1 SWAP2 SUB SWAP1 REVERT JUMPDEST DUP1 MLOAD PUSH1 0x30 EQ PUSH2 0x1CB JUMPI PUSH1 0x40 MLOAD PUSH3 0x461BCD PUSH1 0xE5 SHL DUP2 MSTORE PUSH1 0x20 PUSH1 0x4 DUP3 ADD MSTORE PUSH1 0x1A PUSH1 0x24 DUP3 ADD MSTORE PUSH32 0x496E76616C696420706F696E742070726F6F66206C656E677468000000000000 PUSH1 0x44 DUP3 ADD MSTORE PUSH1 0x64 ADD PUSH2 0x171 JUMP JUMPDEST PUSH32 0x73EDA753299D7D483339D80809A1D80553BDA402FFFE5BFEFFFFFFFF00000001 DUP5 LT PUSH2 0x224 JUMPI PUSH1 0x40 MLOAD PUSH32 0xE8664F900000000000000000000000000000000000000000000000000000000 DUP2 MSTORE PUSH1 0x4 ADD PUSH1 0x40 MLOAD DUP1 SWAP2 SUB SWAP1 REVERT JUMPDEST PUSH32 0x73EDA753299D7D483339D80809A1D80553BDA402FFFE5BFEFFFFFFFF00000001 DUP4 LT PUSH2 0x27D JUMPI PUSH1 0x40 MLOAD PUSH32 0xFA85A7E400000000000000000000000000000000000000000000000000000000 DUP2 MSTORE PUSH1 0x4 ADD PUSH1 0x40 MLOAD DUP1 SWAP2 SUB SWAP1 REVERT JUMPDEST PUSH0 PUSH0 PUSH1 0xA PUSH20 0xFFFFFFFFFFFFFFFFFFFFFFFFFFFFFFFFFFFFFFFF AND DUP8 DUP8 DUP8 DUP8 DUP8 PUSH1 0x40 MLOAD PUSH1 0x20 ADD PUSH2 0x2B0 SWAP6 SWAP5 SWAP4 SWAP3 SWAP2 SWAP1 PUSH2 0x52F JUMP JUMPDEST PUSH1 0x40 DUP1 MLOAD PUSH1 0x1F NOT DUP2 DUP5 SUB ADD DUP2 MSTORE SWAP1 DUP3 SWAP1 MSTORE PUSH2 0x2CA SWAP2 PUSH2 0x560 JUMP JUMPDEST PUSH0 PUSH1 0x40 MLOAD DUP1 DUP4 SUB DUP2 DUP6 GAS STATICCALL SWAP2 POP POP RETURNDATASIZE DUP1 PUSH0 DUP2 EQ PUSH2 0x302 JUMPI PUSH1 0x40 MLOAD SWAP2 POP PUSH1 0x1F NOT PUSH1 0x3F RETURNDATASIZE ADD AND DUP3 ADD PUSH1 0x40 MSTORE RETURNDATASIZE DUP3 MSTORE RETURNDATASIZE PUSH0 PUSH1 0x20 DUP5 ADD RETURNDATACOPY PUSH2 0x307 JUMP JUMPDEST PUSH1 0x60 SWAP2 POP JUMPDEST POP SWAP2 POP SWAP2 POP DUP2 PUSH2 0x343 JUMPI PUSH1 0x40 MLOAD PUSH32 0xD4717AF400000000000000000000000000000000000000000000000000000000 DUP2 MSTORE PUSH1 0x4 ADD PUSH1 0x40 MLOAD DUP1 SWAP2 SUB SWAP1 REVERT JUMPDEST DUP1 MLOAD PUSH1 0x40 EQ PUSH2 0x365 JUMPI PUSH1 0x40 MLOAD PUSH4 0x66B5F063 PUSH1 0xE0 SHL DUP2 MSTORE PUSH1 0x4 ADD PUSH1 0x40 MLOAD DUP1 SWAP2 SUB SWAP1 REVERT JUMPDEST PUSH1 0x20 DUP2 ADD MLOAD PUSH1 0x40 DUP3 ADD MLOAD PUSH2 0x1000 DUP3 EQ ISZERO DUP1 PUSH2 0x3A0 JUMPI POP PUSH32 0x73EDA753299D7D483339D80809A1D80553BDA402FFFE5BFEFFFFFFFF00000001 DUP2 EQ ISZERO JUMPDEST ISZERO PUSH2 0x3BE JUMPI PUSH1 0x40 MLOAD PUSH4 0x66B5F063 PUSH1 0xE0 SHL DUP2 MSTORE PUSH1 0x4 ADD PUSH1 0x40 MLOAD DUP1 SWAP2 SUB SWAP1 REVERT JUMPDEST POP POP POP POP POP POP POP POP POP JUMP JUMPDEST PUSH32 0x4E487B7100000000000000000000000000000000000000000000000000000000 PUSH0 MSTORE PUSH1 0x41 PUSH1 0x4 MSTORE PUSH1 0x24 PUSH0 REVERT JUMPDEST PUSH0 DUP3 PUSH1 0x1F DUP4 ADD SLT PUSH2 0x405 JUMPI PUSH0 PUSH0 REVERT JUMPDEST DUP2 CALLDATALOAD PUSH8 0xFFFFFFFFFFFFFFFF DUP2 GT ISZERO PUSH2 0x41F JUMPI PUSH2 0x41F PUSH2 0x3C9 JUMP JUMPDEST PUSH1 0x40 MLOAD PUSH1 0x1F DUP3 ADD PUSH1 0x1F NOT SWAP1 DUP2 AND PUSH1 0x3F ADD AND DUP2 ADD PUSH8 0xFFFFFFFFFFFFFFFF DUP2 GT DUP3 DUP3 LT OR ISZERO PUSH2 0x44E JUMPI PUSH2 0x44E PUSH2 0x3C9 JUMP JUMPDEST PUSH1 0x40 MSTORE DUP2 DUP2 MSTORE DUP4 DUP3 ADD PUSH1 0x20 ADD DUP6 LT ISZERO PUSH2 0x465 JUMPI PUSH0 PUSH0 REVERT JUMPDEST DUP2 PUSH1 0x20 DUP6 ADD PUSH1 0x20 DUP4 ADD CALLDATACOPY PUSH0 SWAP2 DUP2 ADD PUSH1 0x20 ADD SWAP2 SWAP1 SWAP2 MSTORE SWAP4 SWAP3 POP POP POP JUMP JUMPDEST PUSH0 PUSH0 PUSH0 PUSH0 PUSH0 PUSH1 0xA0 DUP7 DUP9 SUB SLT ISZERO PUSH2 0x495 JUMPI PUSH0 PUSH0 REVERT JUMPDEST DUP6 CALLDATALOAD SWAP5 POP PUSH1 0x20 DUP7 ADD CALLDATALOAD SWAP4 POP PUSH1 0x40 DUP7 ADD CALLDATALOAD SWAP3 POP PUSH1 0x60 DUP7 ADD CALLDATALOAD PUSH8 0xFFFFFFFFFFFFFFFF DUP2 GT ISZERO PUSH2 0x4C0 JUMPI PUSH0 PUSH0 REVERT JUMPDEST PUSH2 0x4CC DUP9 DUP3 DUP10 ADD PUSH2 0x3F6 JUMP JUMPDEST SWAP3 POP POP PUSH1 0x80 DUP7 ADD CALLDATALOAD PUSH8 0xFFFFFFFFFFFFFFFF DUP2 GT ISZERO PUSH2 0x4E8 JUMPI PUSH0 PUSH0 REVERT JUMPDEST PUSH2 0x4F4 DUP9 DUP3 DUP10 ADD PUSH2 0x3F6 JUMP JUMPDEST SWAP2 POP POP SWAP3 SWAP6 POP SWAP3 SWAP6 SWAP1 SWAP4 POP JUMP JUMPDEST PUSH0 PUSH1 0x20 DUP3 DUP5 SUB SLT ISZERO PUSH2 0x511 JUMPI PUSH0 PUSH0 REVERT JUMPDEST POP CALLDATALOAD SWAP2 SWAP1 POP JUMP JUMPDEST PUSH0 DUP2 MLOAD DUP1 PUSH1 0x20 DUP5 ADD DUP6 MCOPY PUSH0 SWAP4 ADD SWAP3 DUP4 MSTORE POP SWAP1 SWAP2 SWAP1 POP JUMP JUMPDEST DUP6 DUP2 MSTORE DUP5 PUSH1 0x20 DUP3 ADD MSTORE DUP4 PUSH1 0x40 DUP3 ADD MSTORE PUSH0 PUSH2 0x555 PUSH2 0x54F PUSH1 0x60 DUP5 ADD DUP7 PUSH2 0x518 JUMP JUMPDEST DUP5 PUSH2 0x518 JUMP JUMPDEST SWAP8 SWAP7 POP POP POP POP POP POP POP JUMP JUMPDEST PUSH0 PUSH2 0x56B DUP3 DUP5 PUSH2 0x518 JUMP JUMPDEST SWAP4 SWAP3 POP POP POP JUMP INVALID LOG2 PUSH5 0x6970667358 0x22 SLT KECCAK256 PUSH17 0x5AC54D7B5C2E49649FD191178CC830A8B8 SWAP7 XOR 0xB3 DUP13 0xFB ADD SWAP16 PREVRANDAO EXTCODECOPY NOT 0xB8 GAS 0xB5 DUP16 PUSH5 0x736F6C6343 STOP ADDMOD SHR STOP CALLER "
        },
        "methodIdentifiers": {
          "BLS_MODULUS()": "5843cc51",
          "FIELD_ELEMENTS_PER_BLOB()": "608fb6d1",
          "POINT_EVALUATION_PRECOMPILE_ADDRESS()": "3e41062e",
          "evaluatePoint(bytes32,uint256,uint256,bytes,bytes)": "0fe58c84",
          "getBlobHash(bytes32)": "2e9c5ec7",
          "getDummyValue()": "0a0e465d"
        }
      }
    }
  }
}